{
  "_format": "hh-sol-artifact-1",
  "contractName": "AMM",
  "sourceName": "contracts/AMM.sol",
  "abi": [
    {
      "inputs": [
        {
          "internalType": "contract IERC20",
          "name": "_tokenX",
          "type": "address"
        },
        {
          "internalType": "contract IERC20",
          "name": "_tokenY",
          "type": "address"
        }
      ],
      "stateMutability": "nonpayable",
      "type": "constructor"
    },
    {
      "inputs": [],
      "name": "PRECISION",
      "outputs": [
        {
          "internalType": "uint256",
          "name": "",
          "type": "uint256"
        }
      ],
      "stateMutability": "view",
      "type": "function"
    },
    {
      "inputs": [
        {
          "internalType": "contract IERC20",
          "name": "_inToken",
          "type": "address"
        },
        {
          "internalType": "uint256",
          "name": "_amountIn",
          "type": "uint256"
        }
      ],
      "name": "getEquivalentToken",
      "outputs": [
        {
          "internalType": "uint256",
          "name": "",
          "type": "uint256"
        }
      ],
      "stateMutability": "view",
      "type": "function"
    },
    {
      "inputs": [
        {
          "internalType": "contract IERC20",
          "name": "_outToken",
          "type": "address"
        },
        {
          "internalType": "uint256",
          "name": "_amountOut",
          "type": "uint256"
        }
      ],
      "name": "getSwapEstimateIn",
      "outputs": [
        {
          "internalType": "uint256",
          "name": "",
          "type": "uint256"
        }
      ],
      "stateMutability": "view",
      "type": "function"
    },
    {
      "inputs": [
        {
          "internalType": "contract IERC20",
          "name": "_inToken",
          "type": "address"
        },
        {
          "internalType": "uint256",
          "name": "_amountIn",
          "type": "uint256"
        }
      ],
      "name": "getSwapEstimateOut",
      "outputs": [
        {
          "internalType": "uint256",
          "name": "",
          "type": "uint256"
        }
      ],
      "stateMutability": "view",
      "type": "function"
    },
    {
      "inputs": [
        {
          "internalType": "contract IERC20",
          "name": "_token",
          "type": "address"
        },
        {
          "internalType": "uint256",
          "name": "_share",
          "type": "uint256"
        }
      ],
      "name": "getWithdrawEstimate",
      "outputs": [
        {
          "internalType": "uint256",
          "name": "",
          "type": "uint256"
        }
      ],
      "stateMutability": "view",
      "type": "function"
    },
    {
      "inputs": [
        {
          "internalType": "contract IERC20",
          "name": "_tokenX",
          "type": "address"
        },
        {
          "internalType": "uint256",
          "name": "_amountX",
          "type": "uint256"
        },
        {
          "internalType": "contract IERC20",
          "name": "_tokenY",
          "type": "address"
        },
        {
          "internalType": "uint256",
          "name": "_amountY",
          "type": "uint256"
        }
      ],
      "name": "provide",
      "outputs": [
        {
          "internalType": "uint256",
          "name": "",
          "type": "uint256"
        }
      ],
      "stateMutability": "nonpayable",
      "type": "function"
    },
    {
      "inputs": [
        {
          "internalType": "address",
          "name": "",
          "type": "address"
        }
      ],
      "name": "share",
      "outputs": [
        {
          "internalType": "uint256",
          "name": "",
          "type": "uint256"
        }
      ],
      "stateMutability": "view",
      "type": "function"
    },
    {
      "inputs": [
        {
          "internalType": "contract IERC20",
          "name": "_inToken",
          "type": "address"
        },
        {
          "internalType": "contract IERC20",
          "name": "_outToken",
          "type": "address"
        },
        {
          "internalType": "uint256",
          "name": "_amountIn",
          "type": "uint256"
        }
      ],
      "name": "swap",
      "outputs": [
        {
          "internalType": "uint256",
          "name": "",
          "type": "uint256"
        }
      ],
      "stateMutability": "nonpayable",
      "type": "function"
    },
    {
      "inputs": [
        {
          "internalType": "contract IERC20",
          "name": "",
          "type": "address"
        }
      ],
      "name": "totalAmount",
      "outputs": [
        {
          "internalType": "uint256",
          "name": "",
          "type": "uint256"
        }
      ],
      "stateMutability": "view",
      "type": "function"
    },
    {
      "inputs": [],
      "name": "totalShare",
      "outputs": [
        {
          "internalType": "uint256",
          "name": "",
          "type": "uint256"
        }
      ],
      "stateMutability": "view",
      "type": "function"
    },
    {
      "inputs": [
        {
          "internalType": "uint256",
          "name": "_share",
          "type": "uint256"
        }
      ],
      "name": "withdraw",
      "outputs": [
        {
          "internalType": "uint256",
          "name": "",
          "type": "uint256"
        },
        {
          "internalType": "uint256",
          "name": "",
          "type": "uint256"
        }
      ],
      "stateMutability": "nonpayable",
      "type": "function"
    }
  ],
  "bytecode": "0x60806040523480156200001157600080fd5b50604051620026ac380380620026ac83398181016040528101906200003791906200013e565b816000806101000a81548173ffffffffffffffffffffffffffffffffffffffff021916908373ffffffffffffffffffffffffffffffffffffffff16021790555080600160006101000a81548173ffffffffffffffffffffffffffffffffffffffff021916908373ffffffffffffffffffffffffffffffffffffffff160217905550505062000185565b600080fd5b600073ffffffffffffffffffffffffffffffffffffffff82169050919050565b6000620000f282620000c5565b9050919050565b60006200010682620000e5565b9050919050565b6200011881620000f9565b81146200012457600080fd5b50565b60008151905062000138816200010d565b92915050565b60008060408385031215620001585762000157620000c0565b5b6000620001688582860162000127565b92505060206200017b8582860162000127565b9150509250929050565b61251780620001956000396000f3fe608060405234801561001057600080fd5b50600436106100a95760003560e01c806387b292f91161007157806387b292f91461018d578063a37230ae146101bd578063aaf5eb68146101ed578063bfa7d42f1461020b578063d72b9da21461023b578063df791e501461026b576100a9565b8063026c4207146100ae5780631877bb5c146100cc5780632e1a7d4d146100fc5780633279081a1461012d57806349b81b101461015d575b600080fd5b6100b661029b565b6040516100c39190611b87565b60405180910390f35b6100e660048036038101906100e19190611c05565b6102a1565b6040516100f39190611b87565b60405180910390f35b61011660048036038101906101119190611c5e565b6102b9565b604051610124929190611c8b565b60405180910390f35b61014760048036038101906101429190611cf2565b6106cf565b6040516101549190611b87565b60405180910390f35b61017760048036038101906101729190611d59565b610d23565b6040516101849190611b87565b60405180910390f35b6101a760048036038101906101a29190611d59565b610fb4565b6040516101b49190611b87565b60405180910390f35b6101d760048036038101906101d29190611d59565b611187565b6040516101e49190611b87565b60405180910390f35b6101f5611360565b6040516102029190611b87565b60405180910390f35b61022560048036038101906102209190611d59565b611367565b6040516102329190611b87565b60405180910390f35b61025560048036038101906102509190611d99565b61157d565b6040516102629190611b87565b60405180910390f35b61028560048036038101906102809190611dc6565b611595565b6040516102929190611b87565b60405180910390f35b60025481565b60036020528060005260406000206000915090505481565b600080600060025411610301576040517f08c379a00000000000000000000000000000000000000000000000000000000081526004016102f890611e76565b60405180910390fd5b60008311610344576040517f08c379a000000000000000000000000000000000000000000000000000000000815260040161033b90611ee2565b60405180910390fd5b600360003373ffffffffffffffffffffffffffffffffffffffff1673ffffffffffffffffffffffffffffffffffffffff168152602001908152602001600020548311156103c6576040517f08c379a00000000000000000000000000000000000000000000000000000000081526004016103bd90611f4e565b60405180910390fd5b60006103f260008054906101000a900473ffffffffffffffffffffffffffffffffffffffff1685610fb4565b90506000610422600160009054906101000a900473ffffffffffffffffffffffffffffffffffffffff1686610fb4565b905084600360003373ffffffffffffffffffffffffffffffffffffffff1673ffffffffffffffffffffffffffffffffffffffff16815260200190815260200160002060008282546104739190611f9d565b92505081905550846002600082825461048c9190611f9d565b9250508190555081600460008060009054906101000a900473ffffffffffffffffffffffffffffffffffffffff1673ffffffffffffffffffffffffffffffffffffffff1673ffffffffffffffffffffffffffffffffffffffff16815260200190815260200160002060008282546105039190611f9d565b925050819055508060046000600160009054906101000a900473ffffffffffffffffffffffffffffffffffffffff1673ffffffffffffffffffffffffffffffffffffffff1673ffffffffffffffffffffffffffffffffffffffff168152602001908152602001600020600082825461057b9190611f9d565b9250508190555060008054906101000a900473ffffffffffffffffffffffffffffffffffffffff1673ffffffffffffffffffffffffffffffffffffffff1663a9059cbb33846040518363ffffffff1660e01b81526004016105dd929190611fe0565b6020604051808303816000875af11580156105fc573d6000803e3d6000fd5b505050506040513d601f19601f820116820180604052508101906106209190612041565b50600160009054906101000a900473ffffffffffffffffffffffffffffffffffffffff1673ffffffffffffffffffffffffffffffffffffffff1663a9059cbb33836040518363ffffffff1660e01b815260040161067e929190611fe0565b6020604051808303816000875af115801561069d573d6000803e3d6000fd5b505050506040513d601f19601f820116820180604052508101906106c19190612041565b508181935093505050915091565b60008483600160009054906101000a900473ffffffffffffffffffffffffffffffffffffffff1673ffffffffffffffffffffffffffffffffffffffff168273ffffffffffffffffffffffffffffffffffffffff16148061077a575060008054906101000a900473ffffffffffffffffffffffffffffffffffffffff1673ffffffffffffffffffffffffffffffffffffffff168273ffffffffffffffffffffffffffffffffffffffff16145b6107b9576040517f08c379a00000000000000000000000000000000000000000000000000000000081526004016107b0906120ba565b60405180910390fd5b60008054906101000a900473ffffffffffffffffffffffffffffffffffffffff1673ffffffffffffffffffffffffffffffffffffffff168173ffffffffffffffffffffffffffffffffffffffff1614806108605750600160009054906101000a900473ffffffffffffffffffffffffffffffffffffffff1673ffffffffffffffffffffffffffffffffffffffff168173ffffffffffffffffffffffffffffffffffffffff16145b61089f576040517f08c379a0000000000000000000000000000000000000000000000000000000008152600401610896906120ba565b60405180910390fd5b8073ffffffffffffffffffffffffffffffffffffffff168273ffffffffffffffffffffffffffffffffffffffff160361090d576040517f08c379a000000000000000000000000000000000000000000000000000000000815260040161090490612126565b60405180910390fd5b60008611610950576040517f08c379a000000000000000000000000000000000000000000000000000000000815260040161094790612192565b60405180910390fd5b60008411610993576040517f08c379a000000000000000000000000000000000000000000000000000000000815260040161098a90612192565b60405180910390fd5b600080600254036109b557620f424060646109ae91906121b2565b9050610ab5565b6000600460008a73ffffffffffffffffffffffffffffffffffffffff1673ffffffffffffffffffffffffffffffffffffffff1681526020019081526020016000205488600254610a0591906121b2565b610a0f9190612223565b90506000600460008973ffffffffffffffffffffffffffffffffffffffff1673ffffffffffffffffffffffffffffffffffffffff1681526020019081526020016000205487600254610a6191906121b2565b610a6b9190612223565b9050808214610aaf576040517f08c379a0000000000000000000000000000000000000000000000000000000008152600401610aa6906122c6565b60405180910390fd5b81925050505b60008111610af8576040517f08c379a0000000000000000000000000000000000000000000000000000000008152600401610aef90612358565b60405180910390fd5b8773ffffffffffffffffffffffffffffffffffffffff166323b872dd33308a6040518463ffffffff1660e01b8152600401610b3593929190612378565b6020604051808303816000875af1158015610b54573d6000803e3d6000fd5b505050506040513d601f19601f82011682018060405250810190610b789190612041565b508573ffffffffffffffffffffffffffffffffffffffff166323b872dd3330886040518463ffffffff1660e01b8152600401610bb693929190612378565b6020604051808303816000875af1158015610bd5573d6000803e3d6000fd5b505050506040513d601f19601f82011682018060405250810190610bf99190612041565b5086600460008a73ffffffffffffffffffffffffffffffffffffffff1673ffffffffffffffffffffffffffffffffffffffff1681526020019081526020016000206000828254610c4991906123af565b9250508190555084600460008873ffffffffffffffffffffffffffffffffffffffff1673ffffffffffffffffffffffffffffffffffffffff1681526020019081526020016000206000828254610c9f91906123af565b925050819055508060026000828254610cb891906123af565b9250508190555080600360003373ffffffffffffffffffffffffffffffffffffffff1673ffffffffffffffffffffffffffffffffffffffff1681526020019081526020016000206000828254610d0e91906123af565b92505081905550809350505050949350505050565b60008060025411610d69576040517f08c379a0000000000000000000000000000000000000000000000000000000008152600401610d6090611e76565b60405180910390fd5b8260008054906101000a900473ffffffffffffffffffffffffffffffffffffffff1673ffffffffffffffffffffffffffffffffffffffff168173ffffffffffffffffffffffffffffffffffffffff161480610e115750600160009054906101000a900473ffffffffffffffffffffffffffffffffffffffff1673ffffffffffffffffffffffffffffffffffffffff168173ffffffffffffffffffffffffffffffffffffffff16145b610e50576040517f08c379a0000000000000000000000000000000000000000000000000000000008152600401610e47906120ba565b60405180910390fd5b600460008573ffffffffffffffffffffffffffffffffffffffff1673ffffffffffffffffffffffffffffffffffffffff168152602001908152602001600020548310610ed1576040517f08c379a0000000000000000000000000000000000000000000000000000000008152600401610ec89061242f565b60405180910390fd5b6000610edc856119de565b9050600084600460008473ffffffffffffffffffffffffffffffffffffffff1673ffffffffffffffffffffffffffffffffffffffff168152602001908152602001600020546103e8610f2e91906121b2565b610f3891906121b2565b9050600085600460008973ffffffffffffffffffffffffffffffffffffffff1673ffffffffffffffffffffffffffffffffffffffff16815260200190815260200160002054610f879190611f9d565b6103e5610f9491906121b2565b905060008183610fa49190612223565b9050809550505050505092915050565b60008060025411610ffa576040517f08c379a0000000000000000000000000000000000000000000000000000000008152600401610ff190611e76565b60405180910390fd5b8260008054906101000a900473ffffffffffffffffffffffffffffffffffffffff1673ffffffffffffffffffffffffffffffffffffffff168173ffffffffffffffffffffffffffffffffffffffff1614806110a25750600160009054906101000a900473ffffffffffffffffffffffffffffffffffffffff1673ffffffffffffffffffffffffffffffffffffffff168173ffffffffffffffffffffffffffffffffffffffff16145b6110e1576040517f08c379a00000000000000000000000000000000000000000000000000000000081526004016110d8906120ba565b60405180910390fd5b600254831115611126576040517f08c379a000000000000000000000000000000000000000000000000000000000815260040161111d906124c1565b60405180910390fd5b600254600460008673ffffffffffffffffffffffffffffffffffffffff1673ffffffffffffffffffffffffffffffffffffffff168152602001908152602001600020548461117491906121b2565b61117e9190612223565b91505092915050565b600080600254116111cd576040517f08c379a00000000000000000000000000000000000000000000000000000000081526004016111c490611e76565b60405180910390fd5b8260008054906101000a900473ffffffffffffffffffffffffffffffffffffffff1673ffffffffffffffffffffffffffffffffffffffff168173ffffffffffffffffffffffffffffffffffffffff1614806112755750600160009054906101000a900473ffffffffffffffffffffffffffffffffffffffff1673ffffffffffffffffffffffffffffffffffffffff168173ffffffffffffffffffffffffffffffffffffffff16145b6112b4576040517f08c379a00000000000000000000000000000000000000000000000000000000081526004016112ab906120ba565b60405180910390fd5b60006112bf856119de565b9050600460008673ffffffffffffffffffffffffffffffffffffffff1673ffffffffffffffffffffffffffffffffffffffff1681526020019081526020016000205484600460008473ffffffffffffffffffffffffffffffffffffffff1673ffffffffffffffffffffffffffffffffffffffff1681526020019081526020016000205461134c91906121b2565b6113569190612223565b9250505092915050565b620f424081565b600080600254116113ad576040517f08c379a00000000000000000000000000000000000000000000000000000000081526004016113a490611e76565b60405180910390fd5b8260008054906101000a900473ffffffffffffffffffffffffffffffffffffffff1673ffffffffffffffffffffffffffffffffffffffff168173ffffffffffffffffffffffffffffffffffffffff1614806114555750600160009054906101000a900473ffffffffffffffffffffffffffffffffffffffff1673ffffffffffffffffffffffffffffffffffffffff168173ffffffffffffffffffffffffffffffffffffffff16145b611494576040517f08c379a000000000000000000000000000000000000000000000000000000000815260040161148b906120ba565b60405180910390fd5b600061149f856119de565b905060006103e5856114b191906121b2565b90506000600460008473ffffffffffffffffffffffffffffffffffffffff1673ffffffffffffffffffffffffffffffffffffffff168152602001908152602001600020548261150091906121b2565b90506000826103e8600460008b73ffffffffffffffffffffffffffffffffffffffff1673ffffffffffffffffffffffffffffffffffffffff1681526020019081526020016000205461155291906121b2565b61155c91906123af565b90506000818361156c9190612223565b905080965050505050505092915050565b60046020528060005260406000206000915090505481565b600080600254116115db576040517f08c379a00000000000000000000000000000000000000000000000000000000081526004016115d290611e76565b60405180910390fd5b8383600160009054906101000a900473ffffffffffffffffffffffffffffffffffffffff1673ffffffffffffffffffffffffffffffffffffffff168273ffffffffffffffffffffffffffffffffffffffff161480611684575060008054906101000a900473ffffffffffffffffffffffffffffffffffffffff1673ffffffffffffffffffffffffffffffffffffffff168273ffffffffffffffffffffffffffffffffffffffff16145b6116c3576040517f08c379a00000000000000000000000000000000000000000000000000000000081526004016116ba906120ba565b60405180910390fd5b60008054906101000a900473ffffffffffffffffffffffffffffffffffffffff1673ffffffffffffffffffffffffffffffffffffffff168173ffffffffffffffffffffffffffffffffffffffff16148061176a5750600160009054906101000a900473ffffffffffffffffffffffffffffffffffffffff1673ffffffffffffffffffffffffffffffffffffffff168173ffffffffffffffffffffffffffffffffffffffff16145b6117a9576040517f08c379a00000000000000000000000000000000000000000000000000000000081526004016117a0906120ba565b60405180910390fd5b8073ffffffffffffffffffffffffffffffffffffffff168273ffffffffffffffffffffffffffffffffffffffff1603611817576040517f08c379a000000000000000000000000000000000000000000000000000000000815260040161180e90612126565b60405180910390fd5b60006118238786611367565b90508673ffffffffffffffffffffffffffffffffffffffff166323b872dd3330886040518463ffffffff1660e01b815260040161186293929190612378565b6020604051808303816000875af1158015611881573d6000803e3d6000fd5b505050506040513d601f19601f820116820180604052508101906118a59190612041565b5084600460008973ffffffffffffffffffffffffffffffffffffffff1673ffffffffffffffffffffffffffffffffffffffff16815260200190815260200160002060008282546118f591906123af565b9250508190555080600460008873ffffffffffffffffffffffffffffffffffffffff1673ffffffffffffffffffffffffffffffffffffffff168152602001908152602001600020600082825461194b9190611f9d565b925050819055508573ffffffffffffffffffffffffffffffffffffffff1663a9059cbb33836040518363ffffffff1660e01b815260040161198d929190611fe0565b6020604051808303816000875af11580156119ac573d6000803e3d6000fd5b505050506040513d601f19601f820116820180604052508101906119d09190612041565b508093505050509392505050565b60008160008054906101000a900473ffffffffffffffffffffffffffffffffffffffff1673ffffffffffffffffffffffffffffffffffffffff168173ffffffffffffffffffffffffffffffffffffffff161480611a885750600160009054906101000a900473ffffffffffffffffffffffffffffffffffffffff1673ffffffffffffffffffffffffffffffffffffffff168173ffffffffffffffffffffffffffffffffffffffff16145b611ac7576040517f08c379a0000000000000000000000000000000000000000000000000000000008152600401611abe906120ba565b60405180910390fd5b60008054906101000a900473ffffffffffffffffffffffffffffffffffffffff1673ffffffffffffffffffffffffffffffffffffffff168373ffffffffffffffffffffffffffffffffffffffff1603611b4457600160009054906101000a900473ffffffffffffffffffffffffffffffffffffffff169150611b68565b60008054906101000a900473ffffffffffffffffffffffffffffffffffffffff1691505b50919050565b6000819050919050565b611b8181611b6e565b82525050565b6000602082019050611b9c6000830184611b78565b92915050565b600080fd5b600073ffffffffffffffffffffffffffffffffffffffff82169050919050565b6000611bd282611ba7565b9050919050565b611be281611bc7565b8114611bed57600080fd5b50565b600081359050611bff81611bd9565b92915050565b600060208284031215611c1b57611c1a611ba2565b5b6000611c2984828501611bf0565b91505092915050565b611c3b81611b6e565b8114611c4657600080fd5b50565b600081359050611c5881611c32565b92915050565b600060208284031215611c7457611c73611ba2565b5b6000611c8284828501611c49565b91505092915050565b6000604082019050611ca06000830185611b78565b611cad6020830184611b78565b9392505050565b6000611cbf82611bc7565b9050919050565b611ccf81611cb4565b8114611cda57600080fd5b50565b600081359050611cec81611cc6565b92915050565b60008060008060808587031215611d0c57611d0b611ba2565b5b6000611d1a87828801611cdd565b9450506020611d2b87828801611c49565b9350506040611d3c87828801611cdd565b9250506060611d4d87828801611c49565b91505092959194509250565b60008060408385031215611d7057611d6f611ba2565b5b6000611d7e85828601611cdd565b9250506020611d8f85828601611c49565b9150509250929050565b600060208284031215611daf57611dae611ba2565b5b6000611dbd84828501611cdd565b91505092915050565b600080600060608486031215611ddf57611dde611ba2565b5b6000611ded86828701611cdd565b9350506020611dfe86828701611cdd565b9250506040611e0f86828701611c49565b9150509250925092565b600082825260208201905092915050565b7f5a65726f206c6971756964697479000000000000000000000000000000000000600082015250565b6000611e60600e83611e19565b9150611e6b82611e2a565b602082019050919050565b60006020820190508181036000830152611e8f81611e53565b9050919050565b7f73686172652063616e6e6f74206265207a65726f210000000000000000000000600082015250565b6000611ecc601583611e19565b9150611ed782611e96565b602082019050919050565b60006020820190508181036000830152611efb81611ebf565b9050919050565b7f496e73756666696369656e742073686172650000000000000000000000000000600082015250565b6000611f38601283611e19565b9150611f4382611f02565b602082019050919050565b60006020820190508181036000830152611f6781611f2b565b9050919050565b7f4e487b7100000000000000000000000000000000000000000000000000000000600052601160045260246000fd5b6000611fa882611b6e565b9150611fb383611b6e565b9250828203905081811115611fcb57611fca611f6e565b5b92915050565b611fda81611bc7565b82525050565b6000604082019050611ff56000830185611fd1565b6120026020830184611b78565b9392505050565b60008115159050919050565b61201e81612009565b811461202957600080fd5b50565b60008151905061203b81612015565b92915050565b60006020828403121561205757612056611ba2565b5b60006120658482850161202c565b91505092915050565b7f546f6b656e206973206e6f7420696e2074686520706f6f6c0000000000000000600082015250565b60006120a4601883611e19565b91506120af8261206e565b602082019050919050565b600060208201905081810360008301526120d381612097565b9050919050565b7f546f6b656e732073686f756c6420626520646966666572656e74210000000000600082015250565b6000612110601b83611e19565b915061211b826120da565b602082019050919050565b6000602082019050818103600083015261213f81612103565b9050919050565b7f416d6f756e742063616e6e6f74206265207a65726f2100000000000000000000600082015250565b600061217c601683611e19565b915061218782612146565b602082019050919050565b600060208201905081810360008301526121ab8161216f565b9050919050565b60006121bd82611b6e565b91506121c883611b6e565b92508282026121d681611b6e565b915082820484148315176121ed576121ec611f6e565b5b5092915050565b7f4e487b7100000000000000000000000000000000000000000000000000000000600052601260045260246000fd5b600061222e82611b6e565b915061223983611b6e565b925082612249576122486121f4565b5b828204905092915050565b7f4571756976616c656e742076616c7565206f6620746f6b656e73206e6f74207060008201527f726f76696465642e2e2e00000000000000000000000000000000000000000000602082015250565b60006122b0602a83611e19565b91506122bb82612254565b604082019050919050565b600060208201905081810360008301526122df816122a3565b9050919050565b7f41737365742076616c7565206c657373207468616e207468726573686f6c642060008201527f666f7220636f6e747269627574696f6e21000000000000000000000000000000602082015250565b6000612342603183611e19565b915061234d826122e6565b604082019050919050565b6000602082019050818103600083015261237181612335565b9050919050565b600060608201905061238d6000830186611fd1565b61239a6020830185611fd1565b6123a76040830184611b78565b949350505050565b60006123ba82611b6e565b91506123c583611b6e565b92508282019050808211156123dd576123dc611f6e565b5b92915050565b7f496e73756666696369656e7420706f6f6c2062616c616e636500000000000000600082015250565b6000612419601983611e19565b9150612424826123e3565b602082019050919050565b600060208201905081810360008301526124488161240c565b9050919050565b7f53686172652073686f756c64206265206c657373207468616e20746f74616c5360008201527f6861726500000000000000000000000000000000000000000000000000000000602082015250565b60006124ab602483611e19565b91506124b68261244f565b604082019050919050565b600060208201905081810360008301526124da8161249e565b905091905056fea264697066735822122016b01d9c476aa8ddd59040b2c1a0f4f92e950a296bd475055701295b6795f73764736f6c63430008110033",
  "linkReferences": {},
  "deployedLinkReferences": {}
}